:020000040800F2
:1040000080FE0220A1420008618300083D70000884
:10401000657B0008F3610008F5A5000800000000BA
:1040200000000000000000000000000075A2000871
:10403000C16A0008000000003143000849A30008DD
:10404000BB420008BB420008BB420008AD9F00080D
:10405000BB420008BB420008BB420008BB4200084C
:10406000BB420008BB420008BB420008BB4200083C
:10407000BB420008BB420008BB420008BB4200082C
:10408000BB420008BB420008BB420008BB4200081C
:10409000BB420008BB420008BB420008BB4200080C
:1040A000BB420008BB420008BB420008BB420008FC
:1040B00009A40008BB420008BB420008BB4200083C
:1040C000BB420008BB420008BB420008BB420008DC
:1040D000BB420008BB42000821A500087DA50008DE
:1040E000BB420008319E0008BB420008BB420008EA
:1040F000BB420008BB420008BB420008BB420008AC
:1041000000000000C99F0008BB420008BB42000835
:10411000B1A40008BB420008BB420008BB42000833
:10412000BB420008BB420008BB420008BB4200087B
:10413000BB4200080000000000000000BB42000875
:10414000BB420008BB420008BB420008BB4200085B
:10415000BB420008BB4200082D640008BB420008B7
:10416000BB420008BB420008BB420008BB4200083B
:10417000BB420008BB4200087D630008000000004D
:10418000BB420008BB42000800F002F800F079F8DA
:104190000AA090E8000C82448344AAF10107DA45A2
:1041A00001D100F06EF8AFF2090EBAE80F0013F07B
:1041B000010F18BFFB1A43F00103184754D703003F
:1041C00074D703000A444FF0000C10F8013B13F0C1
:1041D000070408BF10F8014B1D1108BF10F8015B60
:1041E000641E05D010F8016B641E01F8016BF9D153
:1041F00013F0080F1EBF10F8014BAD1C0C1B09D1AA
:104200006D1E58BF01F801CBFAD505E014F8016B1B
:1042100001F8016B6D1EF9D59142D6D370470000AD
:104220000023002400250026103A28BF78C1FBD8BF
:10423000520728BF30C148BF0B60704766290FF096
:104240002B87642900F09281732900F0AE8700204B
:1042500070471FB50FF01BFF9DE8030000F0C6FC80
:1042600000F0F0FF0400002000210FF0DBF8401CFC
:104270006060002000210FF0EBF8E0601FBD10B57A
:1042800010BD01F0BFFA1146FFF7E3FF0AF024FD6D
:1042900001F0DDFA03B4FFF7F2FF03BC01F04AFBC3
:1042A0000948804709480047FEE7FEE7FEE7FEE7CA
:1042B000FEE7FEE7FEE7FEE7FEE7FEE70448054906
:1042C000054A064B7047000075A3000889410008A5
:1042D000805E022080FE022080BE022080BE02207E
:1042E000EFF3108072B6704780F310887047264C49
:1042F0004FF6FF7525604FF0000484F30988234CC6
:104300004FF001052570224C4FF08055256062B6B4
:10431000FEE730B41E4C4FF08055256030BC70472E
:1043200030B41B4C4FF08055256030BC704700BF47
:1043300072B6EFF3098050B11EF0100F08BF20EDE8
:10434000108A203880E8F00F12490968086000B52B
:10435000114880475DF804EB104811490A78027053
:104360000C4810490A680260106890E8F00F20308D
:104370001EF0100F08BFB0EC108A80F309884EF0D1
:10438000040E62B6704700BF22ED00E0F700002087
:1043900004ED00E010010020E98F0008F400002087
:1043A000F50000201801002070B5064600F002FC60
:1043B000056806F10B0020F00704B4429CBF002002
:1043C00070BD2B466A68BAB11068A04210D304F1E0
:1043D000080188423CBF5068586007D351681019E3
:1043E00041601168091B016058601460101D70BDA8
:1043F00013465268002AE7D12146284600F0E2FB26
:104400000028DED170BD70B50446051F00F0D2FB58
:104410000068002C14BF446870BD002C18BFAC426B
:104420003CBF20466468F8D301680A18AA4218BF46
:10443000456003D12A680546114401602868411986
:10444000A1421CBF6C6070BD61686960216808444E
:10445000286070BD10B5044600F0A4FB0068005D44
:10446000C00602D504F1200010BD204610BD00009A
:104470000FB41CB5074B06AA7B446946009005980B
:1044800000F061FE0020694600F070FE1CBC5DF883
:1044900014FB0000F10C00000FB41CB50C0007AABF
:1044A000009001D02044401E074B7B446946019098
:1044B000069800F048FE002C03D06946002000F06A
:1044C00055FE1CBC5DF814FBC90C000070B5044619
:1044D00085690068C10601D5302600E02026C007A6
:1044E00007D070BDD4E9012130469047206A401CB6
:1044F00020626D1EF6D570BD70B5044685690078E2
:10450000C00707D170BDD4E9012120209047206A5F
:10451000401C20626D1EF6D570BD70B50C46054678
:10452000012A05D02878800600D5EA69002302E038
:10453000012305E05B1C934202D2E05C0028F9D124
:10454000A869E618C01AA861286A18442862284693
:10455000FFF7BCFF04E0D5E9012114F8010B9047F7
:10456000B442F8D32846FFF7C7FF70BD2DE9F041EC
:104570000646002410687529314616A510D0AFF301
:104580000080002802DA404213A507E031688A075C
:1045900001D512A502E0490704D511A5012401E0C7
:1045A000AFF3008000210A2206F1240709E0B0FBE6
:1045B000F2FCB0FBF2F302FB1C00303078541846DA
:1045C000491C0028F3D123462A463046BDE8F04175
:1045D00000F04DBB000000002D0000002B0000008B
:1045E000200000002DE9F05F894604464FF0000AE4
:1045F000DFF824B1FB44C0F820A02046E1688847DA
:1046000000287DD0252806D0D4E901219047206AD2
:10461000401C2062F1E700255F462046E16888479C
:104620002028064607DB312E05D2B81910F8200CD9
:1046300008B10543F1E7A80701D525F00405C4F842
:104640001CA00027C4F818A02A2E09D0304607F075
:104650007FF838B304EB8708303EC8F8186019E0DB
:1046600059F8041B204604EB87029161E1688847F2
:10467000012F064618D1E069002820DA25F0200530
:104680001DE0D8F8180000EB800006EB4000303841
:10469000C8F818002046E1688847064607F058F831
:1046A0000028EED1012F0AD02E2E08D12046E16835
:1046B00088477F1C0646022F45F02005C4DBA06911
:1046C000002803DA404245F00105A061E80701D067
:1046D00025F01005A6B1A6F14100192802D8203610
:1046E00045F400654A463146204625604D46FFF7B1
:1046F000A5FD60B1012807D0ED1D25F0070000E001
:1047000007E000F1080978E705F1040975E730468C
:104710007AE7206ABDE8F09FE6CE03000FB400B54B
:104720008DB010A9099000910B904FF0FF300A90C6
:1047300000200C90064878440690064878446A4663
:1047400007900F9909A800F049FD0DB05DF814FB22
:10475000C30A0000DB0A00002DE9FF5F1D464FF091
:10476000FF3B91464FF000085F46D5E90146A96935
:1047700001987F1C8847296A824688470028F6D11D
:10478000BAF1FF3F0CD0002E24F4C06419DD60069E
:1047900014D5BAF12B0F09D0BAF12D0F0ED103E0C9
:1047A000584604B0BDE8F09F44F48064A9690198BC
:1047B0007F1C8847761E8246002E02DDBAF1300F3C
:1047C00003D0B9F1000F26D032E0A969761E019816
:1047D0007F1C44F400748847002E824605DDBAF140
:1047E000780F06D0BAF1580F03D0B9F1000F10D0EE
:1047F0001EE0B9F1000F02D0B9F1100F18D1A9696C
:10480000761E01987F1C24F400748847824610208D
:1048100002E0082000E00A20814609E0A96908FBBF
:104820000908761E01987F1C44F40074884782466C
:10483000002E05DD4946504600F0BBFC0028EDDAAD
:10484000E96901988847A00502D46FF00100A8E744
:10485000E00725D1600613D5600502D5C8F1000038
:1048600000E0404629680A1D2A600968220501D532
:10487000087015E0220701D5088011E008600FE0FC
:104880002868011D29600068210502D580F8008094
:1048900006E0210702D5A0F8008001E0C0F8008002
:1048A00038467EE730B505460B462A4613F8014BDD
:1048B00012F8010B08B1A042F8D01CB1002802D0B8
:1048C0006D1CF1E7284630BD40EA010310B59B0797
:1048D0000FD1042A0DD310C808C9121F9C42F8D06A
:1048E00020BA19BA884201D9012010BD4FF0FF301B
:1048F00010BD1AB1D30703D0521C07E0002010BD31
:1049000010F8013B11F8014B1B1B07D110F8013BBC
:1049100011F8014B1B1B01D1921EF1D1184610BD9D
:1049200010B5431C02E010F8011B71B18107FAD1E8
:104930004FF0013202C88C1A8C4314EAC211F9D02C
:10494000C01A0A0603D0C01E10BDC01A10BD0A044A
:1049500001D0801E10BD0902FCD0401E10BD40EAEF
:10496000010370B59B072ED14FF00136042A2AD3DC
:1049700008C810C99D1B9D43121F15EAC61517D004
:10498000D8B2E1B2401A50EA056110D198B2A1B292
:10499000401A50EA05410AD123F07F4024F07F41BC
:1049A000401A50EA052102D1180EA0EB146070BD28
:1049B000A342DBD018BA21BA884201D9012070BDC8
:1049C0004FF0FF3070BD0AB9002070BD10F8013BF8
:1049D00011F8014B63B1A3420AD1521E08D010F85E
:1049E000013B11F8014B1BB1A34201D1521EEDD185
:1049F000181B70BD421E12F8013F002BFBD111F8AD
:104A0000013B002B02F8013BF9D17047032A40F229
:104A1000308010F0030C00F0158011F8013BBCF160
:104A2000020F624498BF11F801CB00F8013B38BF78
:104A300011F8013BA2F1040298BF00F801CB38BF86
:104A400000F8013B11F0030300F02580083AC0F0A4
:104A5000088051F8043B083A51F804CBA0E808104C
:104A6000F5E7121D5CBF51F8043B40F8043BAFF37F
:104A70000080D20724BF11F8013B11F801CB48BFD9
:104A800011F8012B24BF00F8013B00F801CB48BF0F
:104A900000F8012B704710B5203AC0F00B80B1E848
:104AA0001850203AA0E81850B1E81850A0E8185063
:104AB000BFF4F5AF5FEA027C24BFB1E81850A0E86C
:104AC000185044BF18C918C0BDE810405FEA827C86
:104AD00024BF51F8043B40F8043B08BF7047D2079D
:104AE00028BF31F8023B48BF11F8012B28BF20F83E
:104AF000023B48BF00F8012B704702F0FF0343EA76
:104B0000032242EA024200F002B84FF000020429F8
:104B1000C0F0128010F0030C00F01B80CCF1040CEC
:104B2000BCF1020F18BF00F8012BA8BF20F8022B20
:104B3000A1EB0C0100F00DB85FEAC17C24BF00F8C6
:104B4000012B00F8012B48BF00F8012B70474FF0F4
:104B5000000200B5134694469646203922BFA0E8CD
:104B60000C50A0E80C50B1F12001BFF4F7AF0907D9
:104B700028BFA0E80C5048BF0CC05DF804EB8900CA
:104B800028BF40F8042B08BF704748BF20F8022B0D
:104B900011F0804F18BF00F8012B70477047704725
:104BA0007047000010B500F04DFB001D10BD00BFA8
:104BB00075E8000000487047285E02207047704783
:104BC0007047704738B504460A4600206946AFF37F
:104BD0000080002808BF38BD02460099204600F03A
:104BE00039FB012038BD012000F004BEF8B5AFF359
:104BF0000080054600200C46102000BF0646A8197C
:104C0000A0420DD9324669460020AFF3008007006C
:104C100008BF00F0EFFD0098A04218BF0546C41978
:104C2000FFF7C8FF05600746F01D20F00700461992
:104C3000284600F00AF8B44208BFF8BDA21B31466E
:104C40003868BDE8F84000F005BB00210160C0E90C
:104C5000011070471020704710B500F0F7FA006897
:104C600010BD10B5044600F0F1FA046010BD2DE946
:104C7000F0470D4699469246044600F12408016823
:104C8000880604D5E06921F01001216000E00120D0
:104C9000A84201DD471B00E00027A1697A1902EB59
:104CA0000900081AA0612078C00602D42046FFF748
:104CB0000DFC002608E0D4E901211AF8060090470F
:104CC000206A401C761C20624E45F4DB2078C0062A
:104CD0000AD52046FFF7FAFB06E0D4E9012130208F
:104CE0009047206A401C2062381EA7F10107F4DCBF
:104CF00007E0D4E9012118F805009047206A401C1C
:104D00002062281EA5F10105F3DC2046FFF7F4FB25
:104D10002078000602D50220BDE8F0870120FBE7DD
:104D200070472DE9FF4F0C461E464FF0FF378BB002
:104D3000D2E90001DDF860800A908A46C1F30A5585
:104D400005B93D46002108464FF00000BAF1000FBA
:104D500000F4400005DA00EB80004FF4400101EA66
:104D600050004FEA9059B9F1010F00DDB9460A9899
:104D700050EA4A000ED044F61050A5F2FF354543E4
:104D80002F14B8F1000F1ED07542291E1EDDC9F187
:104D900000021CE0B8F1010F4FF0000001D03021FB
:104DA00003E0F24305E02154401CB042FBDB3046F7
:104DB0000022002121540B99C1F80880C1E900208C
:104DC0000FB0BDE8F08FBD1B6D1CDEE74A4600DA70
:104DD000694206A800F0A0FC06AB93E8070003AB0D
:104DE00083E8070050460A9900F0CAFD8DE80700E5
:104DF000A0F500501F3800900398002D09DD42F205
:104E00001F014A46084403A90390684601F029F8A7
:104E100008E0A0F500504A461F3803A903906846F1
:104E200001F033F88DE807000004000C03D04FF0C8
:104E3000FF30410800E01046B8F1000F03D0002217
:104E4000009215461EE0751E05D400F01DFA3032A2
:104E500062556D1EF9D5B3460122084302D00022E7
:104E60007F1C04E02078302801D100227F1E002A18
:104E7000099786D01DE0112D07DA00F005FA3032CF
:104E800062556D1C50EA0102F5D1084302D000982A
:104E9000C8B10EE00021681E05E0235C625C63542B
:104EA0002254401E491C8142F7DBAB46A81B401E22
:104EB0000990002004F80B000B98099AC0F80880AC
:104EC000C0E9002B7CE711264FF0000859E72DE9D7
:104ED000F04F88460446D21D22F0070191B0D1E977
:104EE0000001CDE90A0105F02EFD02460B98C00F26
:104EF00001D02D2007E02068810701D52B2002E09A
:104F0000202101EAC000032A099001D0072A05DB0D
:104F100003464146204600F005FA0BE12078800662
:104F200001D5E06900E00620B8F1650F814606D0A2
:104F3000B8F1660F18D0B8F1670F70D131E00020DA
:104F4000B9F1110F009001DB112301E009F1010318
:104F50000AAA01A90CA8FFF7E4FEDDE90C700026FF
:104F600009F10105834647E001204B4600904FF0D0
:104F700000470AAA01A90CA8FFF7D3FEDDE90DB08E
:104F80000C995D46002610B909F101000D18B9EB26
:104F9000050003D4C0F1FF3609F10105A5EB0900B6
:104FA0002BE0B9F1010F01DA4FF001090020B9F14E
:104FB000110F0090484601DD112300E003460AAAC4
:104FC00001A90CA8FFF7ADFEDDE90C704D460026E7
:104FD0008346207800070AD4AB4500DA5D4601A875
:104FE000012D04DD411911F8011C302907D04F456E
:104FF00002DA17F1040F04DA012082460FE06D1E79
:10500000EEE7002F02DCED1B3E4403E0781CA842D3
:1050100000DD7D1CB81B00F1010A4FF0004720782D
:10502000000703D4AA4501DB4FF0FF3A0021B7F196
:10503000004F0DF143088DF8431024D002202B239C
:10504000002F01DA7F422D230A21021EA0F1010068
:1050500000DC5FB197FBF1FC97FBF1F201FB1C7CDC
:1050600017460CF1300C08F801CDEEE7A8F101006D
:1050700003702188090501D5452100E06521A0F1D3
:10508000010800F8011C09980FA9A1EB0807FF1DF2
:1050900000B10120411901EBEA70A1693844081AF6
:1050A000401EA0612078C00602D42046FFF70EFA09
:1050B000099828B1D4E901219047206A401C206258
:1050C0002078C00622D52046FFF700FA1EE0002E09
:1050D00004DBB34502DD01A8805D00E03020D4E9A7
:1050E00001219047206A401C2062761CAAF1010031
:1050F0005FEA000A0AD100F0A5F8C0680168405CC8
:10510000D4E901219047206A401C2062281EA5F1A5
:105110000105DCDC07E0D4E9012118F8010B904718
:10512000206A401C2062381EA7F10107F3DC2046EC
:10513000FFF7E2F9032011B043E6000001694A1CC1
:1051400002610878704700B58FB0CDE901310021C8
:10515000059105497944CDE9031011466846FFF7EA
:1051600041FA0FB000BD0000E5FFFFFF0A6802F83A
:10517000010B0A607047D1E900239A4202D2531C06
:105180000B601070704710B5436913B1AFF3008026
:1051900001E0FFF7C2F9012010BD127800F12401EF
:1051A0000A7000224A700122EDE711684FF0FF32C9
:1051B000E9E73A2800D2303820F02002412A01D312
:1051C000A2F13700884201D34FF0FF307047000052
:1051D000026811441378016018467047D160054990
:1051E00079445161044979441162002111611146E9
:1051F00000F0D8B8EDFFFFFF29010000426842B17E
:10520000016811F8013B23B1521EC0E90012184693
:1052100070470121C160881E704742685AB1C36857
:10522000016843B983688B4205D0491E521CC0E90E
:105230000012002070474FF0FF3070470048704761
:10524000205E022000487047405E02200048704700
:10525000205E0220034640688C46002818BF884222
:105260003CBF03464068F8D318681844884207D00A
:105270000CF1030020F00700001D411A521A0146EC
:10528000081D0A60FFF7BFB830B5B0F10A024FEA57
:10529000900E71F100034EEA817EB0EB0E0061EBDF
:1052A00091014FEA101E4EEA017E10EB0E0041EB19
:1052B00011114FEA102E4EEA016E10EB0E0041EB79
:1052C00011214FEA104E4EEA014E10EB0E0041EB59
:1052D0001141401841F100014FEAD00040EA41700D
:1052E0004FEAD10110EB80054FEA810444EA907443
:1052F00044EB01046D1944EB0404521BA3414FF02D
:10530000000348BF0A3200D530BD401C41F1000106
:1053100030BD10B50446FFF745FC0068005D00F0A5
:10532000010010BD2DE9F0411F4604460326016827
:10533000072A01F4006004DB08B116A505E016A5F4
:1053400003E008B115A500E015A521F010002060CC
:10535000A069C01EA0610FB1401EA0612046FFF7EA
:10536000B5F84FB1D4E9012138469047206A401C76
:105370002062C01C206206E0206AFAE7D4E901211D
:1053800015F8010B9047761EF8D22046FFF7B4F8C7
:10539000BDE8F0814E414E006E616E00494E460000
:1053A000696E66002DE9F34F4FF0000A0C46564631
:1053B0008DB001200C9001F10C000B9062690B98EC
:1053C0000121904705002DD0252D2CD0216A88473A
:1053D000C0B162690B9801219047216A8847002873
:1053E000F7D16269411E0B98904700E0761CA169D5
:1053F0000D988847216A88470028F7D1E1690D9800
:105400008847DBE7A1690D988847A842074601D184
:10541000761CD3E7E1690D9888477F1C02D1BAF169
:10542000000F6FD06BE162690B9800273D4639464B
:1054300090472A2804D162690B98012190470125E1
:10544000DFF8D08262690B9801219047A0F130010A
:105450000A290AD24745E5DC07EB870100EB410743
:10546000303FDFD445F01005ECE7E90601D46FF0DA
:1054700000476C280AD04C2814D0682815D06A2818
:105480000DD074281CD07A281AD01DE062690B98C0
:10549000012190476C2802D045F0040514E045F046
:1054A00002050DE045F020050AE062690B98012134
:1054B0009047682802D045F0080505E045F40065EE
:1054C00062690B9801219047C4E9015765283DD0D6
:1054D00019DC58287AD00CDC452837D004DC252884
:1054E00026D041289ED131E046282FD0472899D197
:1054F0002CE05B2877D0612828D063287CD06428F2
:1055000023D15AE0F6E06F2848D008DC66281DD089
:1055100067281BD0692821D06E2816D127E0702873
:1055200045D0732868D0752847D078280DD14DE034
:10553000A1690D988847252805463FF469AFE169C0
:105540000D9888476D1C3FF46AAFD8E00D9923464B
:105550006A466FF00100AFF30080C5E045F04000FF
:1055600023464FF000026060A80736D43EE0E8070B
:105570007FF447AF2068011D21600068290501D52F
:1055800006701BE7290701D5068017E7A90703D591
:10559000F117C0E9006111E706600FE745F0400030
:1055A00023464FF008026060A80716D41EE040F6BC
:1055B0000E0125EA0100606016E045F04000234638
:1055C0004FF00A026060A80707D40FE045F04000E2
:1055D0006060A80708D5234610220D996FF00100DE
:1055E000AFF3008080E007E0102223460D996FF0B2
:1055F0000100FFF7B1F877E04FF0000963284F464C
:10560000C8464B46CB4602D05B2806D038E0E806B9
:1056100001D40120A060012732E06269D4F80CB007
:105620000B98012190475E2807D14FF001094946A8
:105630006269D4F80CB00B989047216939B9002100
:105640000A4603AB43F82120491C0829FADBD8B3EA
:10565000216949B308F1010862690B98012190475B
:105660005D28F4D1B9F1000F09D0002003A951F849
:105670002020D24341F82020401C0828F7DB03AB50
:105680002069002820794FEA40701ED05B462246F0
:10569000CDF80080CDE901970D9900286FF0010049
:1056A00020DAAFF300801FE0C11703AA00EBD1613D
:1056B0004B1121F01F0102EB8302411A13680120F4
:1056C000884003431360C7E719E00D99224600287C
:1056D0006FF00100009702DAAFF3008004E0AFF34F
:1056E000008001E0AFF3008000280ADA401C06D1F8
:1056F0000C9820B14FF0FF300FB0BDE8F08F50464E
:10570000FAE7E90701D10AF1010A064400200C90EA
:1057100054E60000CCCCCC0C2DE9F047814616466F
:105720008AB0334878440DC88DE80D00304878447D
:10573000801C03AC0DC884E80D0041F69B30084482
:10574000372190FBF1F290FBF1F5A5F1800501FB0B
:1057500012041B3C02D56442012000E00020DFF867
:1057600090A080460027FA44AAF1BE0A0DE0E007A7
:1057700009D03246684607EB47010AEB810100F089
:1057800084FB8DE8070064107F1C002CEFD1184FBC
:105790007F44AC3F18E0E80714D007EB04100DF18C
:1057A000180A90E80E008AE80E00C068F04201D1A5
:1057B00098190890324606A903A800F066FB03ABCF
:1057C00083E807006D10641C002DE4D13246694661
:1057D000B8F1000F03A802D000F043FB01E000F095
:1057E00054FBC9E90001C9F808200AB0BDE8F087F8
:1057F000D4BE030010B500F035F8BDE8104000F04D
:105800002CB870477546FFF719FDAE46050069468E
:10581000534620F00700854618B020B5FEF74EFD30
:10582000BDE820404FF000064FF000074FF00008A1
:105830004FF0000B21F00701AC46ACE8C009ACE822
:10584000C009ACE8C009ACE8C0098D467047044601
:10585000AFF300802046FEF71DFD002801D000F0C8
:1058600069B8704710B5012805D0002103A000F0E9
:1058700067F8012010BD09A1F8E70000534947521D
:10588000544D454D3A204F7574206F662068656110
:1058900070206D656D6F7279000000003A204865D8
:1058A0006170206D656D6F727920636F72727570B3
:1058B000746564004FF0013C50F8042B51F8043B30
:1058C0009A4221D1A2EB0C03934313EACC1317D1D4
:1058D00050F8042B51F8043B9A4215D1A2EB0C036B
:1058E000934313EACC130BD150F8042B51F8043B2B
:1058F0009A4209D1A2EB0C03934313EACC13DBD0F9
:105900004FF00000704700BFD01A01BAB1FA81F120
:1059100001F0180122FA01F0CB40C1F12001DBB205
:10592000C0B2C01A2CFA01F3D11A914311EAC31183
:10593000E6D1704701491820ABBEFEE72600020001
:1059400070B505460C460A2000E06D1C00F011F809
:1059500035B128780028F8D102E0641C00F009F87D
:1059600014B120780028F8D1BDE870400A20AFF3C8
:10597000008008B569468DF800000320ABBE08BD65
:105980005FEA400C08BF91F0000F4FEA8C234FEA0A
:10599000C12243EA51514FEA1C5018BF00F5F040B4
:1059A0004FEA300018BF41F000415FEA6C5C00F044
:1059B0002980BCF1FF3F08BF40F080407047130CC6
:1059C00006BF12044FF0100C4FF0000C130E04BF72
:1059D00012020CF1080C130F04BF12010CF1040C9D
:1059E000930F04BF92000CF1020CD30F04BF5200BE
:1059F0000CF1010C11464FF00002A0F11F00A0EBCA
:105A00000C00704711F0004F08BF704731F00041A3
:105A10003FF4D5AF0B0C06BF09044FF0100C4FF04C
:105A2000000C0B0E04BF09020CF1080C0B0F04BF95
:105A300009010CF1040C8B0F04BF89000CF1020C5E
:105A4000CB0F04BF49000CF1010CCCF12003A0EBFB
:105A50000C0022FA03F302FA0CF241EA030100F10E
:105A60000100704720F07F4C80EA030023F07F475D
:105A7000ACEB070303F57C5300F0004003F1FF0398
:105A80002DE980494FEA154B09B44FEA144325EA42
:105A90000B4E24EA03480FF2042606EB13274908AD
:105AA0003E785FEA320203FB0667C7F5000707FB93
:105AB00006F64FEA54374FEAD64606F1020607FBD0
:105AC000066CCCF1005C4FEA1C472CEA074C07FB44
:105AD00006F40CFB06F504EB15464FEA961634BFA8
:105AE00000204FF000404FEAD13706FB07FC4FEA99
:105AF0001C4C0CFB0BF7D21B03FB0CF761EB0701F3
:105B00000CFB0EF7B0EB074072EB17420CFB08F7EB
:105B100034BFA2EB0742B2EB074261EB17414FEAF9
:105B20000C444FEA910706FB07FC4FEA1C4C0CFBA8
:105B30000BF7B0EBC74072EB573203FB0CF734BFE7
:105B4000A2EBC742B2EBC74261EB57310CFB0EF739
:105B5000B0EBC70072EB57720CFB08F734BFA2EB37
:105B6000C702B2EBC70261EB5771039F4FEA816135
:105B700041EA921104EBCC044FEAD1374FEA82623A
:105B800006FB07FC42EA90124FEA80604FEA1C4C89
:105B90000CFB0BF7D21B03FB0CF761EB07010CFBB3
:105BA0000EF7B0EB074072EB17420CFB08F734BF5F
:105BB000A2EB0742B2EB074261EB17414FEA8C556B
:105BC0004FEA910704EB9C2406FB07FC4FEA1C4CB0
:105BD0000CFB0BF7B0EBC74072EB573203FB0CF733
:105BE00034BFA2EBC742B2EBC74261EB57310CFBAB
:105BF0000EF7B0EBC70072EB57720CFB08F734BF1F
:105C0000A2EBC702B2EBC70261EB577115EB4C2553
:105C10004FEA816141EA92114FEA82624FEAD1373D
:105C200042EA901206FB07FC44F100044FEA806050
:105C30004FEA1C4C0CFB0BF7D21B03FB0CF761EB80
:105C400007010CFB0EF7B0EB074072EB17420CFBA1
:105C500008F734BFA2EB0742B2EB074261EB1741F2
:105C600015EB1C154FEA813141EA92414FEA82322D
:105C700042EA90424FEA80304FEA0C7644F1000449
:105C800048EA03434EEA0B484FF0000EB2EB080C13
:105C900071EB030724BF624639464EEB0E0E4FF000
:105CA000000B0018524149414BEB0B0BB2EB080CB7
:105CB00071EB03077BF1000B24BF624639464EEBC4
:105CC0000E0E4FF0000B0018524149414BEB0B0BED
:105CD000B2EB080C71EB03077BF1000B24BF6246AB
:105CE00039464EEB0E0E51EA020718BF46F0010688
:105CF00016EB0E7655F1000254F1000103D5BDE814
:105D00008901BDE80088BDE88901BDE80048B619F1
:105D1000524141EB0101A3F10103704780807F7E76
:105D20007D7C7B7A79787776767574737271717011
:105D30006F6E6E6D6C6C6B6A6A69686867666665C3
:105D40006464636362616160605F5F5E5E5D5D5C51
:105D50005C5B5B5A5A5959585857575656555555C2
:105D60005454535352525251515050504F4F4F4E22
:105D70004E4D4D4D4C4C4C4B4B4B4A4A4A49494970
:105D800048484847474747464646454545444444B2
:105D9000444343434342424242414141002B26D4C3
:105DA000770021D01CB54FEA370703B44FF010003D
:105DB0004FF010014FF000000FBCBDE810400BF198
:105DC000010BBBF1010F08BF5FEA170722BF12F1F9
:105DD000010211F101014FF0004143F1000300F015
:105DE000004043EA00007047F9D35708DAE746EA73
:105DF000064613F1400F4FEA16461FDD13F1200F40
:105E0000DFBF16430A46002120335B42C8D0C3F1EE
:105E1000200746EA064602FA07F74FEA164646EA20
:105E20000706C3F1200722FA03F201FA07F721FA65
:105E300003F14FF0000342EA0702B1E746EA020627
:105E400046EA06464FEA164646EA0106BCBF46EA5F
:105E50000646360C4FF000034FF000024FF00001F1
:105E60009EE72DE9C048934630B491E8380007C852
:105E700031EA400C48BF34EA430C03D5FFF7F2FD8A
:105E8000FFF78CFFF0BCBDE800882DE9C0489346C1
:105E900030B491E8380007C810F0804F08BF13F005
:105EA000804F03D100F005F8FFF778FFF0BCBDE8A4
:105EB000008820F07F4780EA030023F07F4C07EB47
:105EC0000C03A3F57C5300F00040A3F1FE0392F015
:105ED000000F00F0B38095F0000F00F077802DE9FF
:105EE00001494FEA11404FEA144621EA004800FBFD
:105EF00006FC24EA064708FB06F607FB08F800FB49
:105F000007F718EB06484CEB164C4FEA124B18EB10
:105F100007484FEA15464CEB174022EA0B4E0BFBA5
:105F200006FC25EA06470EFB06F607FB0EFE0BFBFA
:105F300007F71EEB064E4CEB164C4FF000061EEB1F
:105F4000074E4CEB174B18EB0B0840F1000018EB19
:105F50000E0B58EB000840F100008F1A4FF00001C3
:105F60003CBFC943661B14BFB5EB040C00213CBF0A
:105F7000C943F61B4FEA17444EEA8E0E27EA044542
:105F80004FEA1C4704FB07622CEA074C05FB07F7A6
:105F90000CFB05F604FB0CFC16EB074642EB174224
:105FA00016EB0C4642EB1C421BEB060658EB0202BA
:105FB000414146EA9E0601D5BDE80189B619524124
:105FC00041EB0101A3F10103BDE801894FEA14454A
:105FD0004FEA114724EA054621EA074C05FB07F47E
:105FE00006FB07F70CFB06F105FB0CFC11EB074168
:105FF00044EB17444FEA124711EB0C4144EB1C44AD
:1060000022EA074C05FB07F206FB07F70CFB06F636
:1060100005FB0CFC16EB074642EB174216EB0C4651
:1060200042EB1C456A1854F1000148BF7047B6198D
:10603000524141EB0101A3F10103704795F0000FBC
:1060400037D04FEA11424FEA144721EA024624EAC8
:10605000074C02FB07F106FB07F70CFB06F402FBFB
:106060000CFC14EB074441EB17414FEA154714EBC6
:106070000C4441EB1C4125EA074C02FB07F506FBEB
:1060800007F70CFB06F602FB0CFC16EB074645EB8C
:10609000174516EB0C4645EB1C42121951F1000155
:1060A00048BF7047B619524141EB0101A3F101030A
:1060B00070474FEA14454FEA114724EA054621EAA2
:1060C000074C05FB07F106FB07F70CFB06F24FF048
:1060D000000605FB0CFC12EB074241EB174112EBEB
:1060E0000C4251EB1C4148BF7047921841EB010133
:1060F000A3F101037047000070B505460B4808F096
:1061000082FE0A4C0A48012120600A4860600A4861
:10611000C4E903051C30C4F8E00604F10C0005F0E6
:106120007DFBE0680069BDE870400047C840002082
:106130006B7B00086F7B00086443010801A003F03B
:1061400091BF00005468657265206973206E6F20EE
:106150004154556172744465696E69742066756E48
:106160006374696F6E0D0A001CB506490020CDE905
:10617000000164234FF4C06203494FF4613000F022
:1061800039F81CBD896E0008BC4700208AB2014660
:10619000012000F04FB810B500F07CF8012010BDD0
:1061A00010B50C4610F0F00F00F00F014FF0300367
:1061B00003D049B11022214602E023701022611C55
:1061C00008F0A8FC204610BD6370F3E700231360BD
:1061D00000280DD0C878000210608B7818430002A8
:1061E00010604B7818430002106009780843106073
:1061F0007047FEE72DE9F0470F46DDE90848814684
:106200001D46164618210948FEF7A1FC0748002143
:106210004760018005610681C4600548C0F80480BC
:106220004846BDE8F04706F0B9B80000BC4D002074
:106230007C0000202DE9F047804614481646894628
:10624000406800281ED0124D2988E9B1804769694D
:10625000401A2969884217D32C882889A04201D87E
:10626000401E84B268680027A642075500D2344613
:10627000B8F1000F04D0224648466968FEF7C6FB15
:106280002F802046BDE8F0870020FBE77C0000203F
:10629000BC4D00202DE9F041124D0F0006464FF095
:1062A00000040DD0315D28460CF046FB641CBC4256
:1062B00014D2072128460CF086FB0028F9D0F1E71C
:1062C000315D28460CF038FB641C305D30B107218D
:1062D00028460CF078FB0028F9D0F1E70120BDE852
:1062E000F0810000004400402DE9F0478846054653
:1062F00014469A464EF660274FF400711846FEF792
:1063000004FC2846FEF70CFB174E0146F068826835
:106310002846904758EA040005D000F0B5FD054630
:106320004FF4487918E00120BDE8F087F06849464D
:10633000C2685046904778B121465046FEF7B2FAFF
:1063400000B174B941465046FEF7ACFA20B151464F
:1063500006A003F087FEE6E700F096FD401BB8427A
:10636000E4D30020E0E70000C8400020436D642033
:1063700041434B2D2D2D3E25730D0A0010B502F023
:1063800065FA012006F050FC012808D108F006FC4F
:10639000012006F041FC04480178491C0170BDE869
:1063A000104002F05FBA0000440000202DE9F041E7
:1063B00006468AB01C4690460D4640F616400AF046
:1063C00095F90F4F0721384606F0F1FF0D48009070
:1063D00001210394CDE901160020CDE90605CDE9A0
:1063E0000480490408916A460721384607F078F985
:1063F00001220721384606F0CFFF0AB0BDE8F08140
:10640000006402402800055010B506F0CFFB054897
:106410000168C907FCD1BDE810400721024806F019
:10642000A9BF0000000005500064024010B502F052
:106430000DFA094C20220721204607F042F838B116
:1064400020220721204607F021F8044840688047B1
:10645000BDE8104002F006BA00640240440000208B
:10646000024601EB410102EBC10100200969C907A5
:1064700000D00120704700002DE9F04F8246E7B0C0
:10648000C3A003F0EFFD0025C6A003F0EBFD4FF421
:106490000078002447464046FDF786FF064638460A
:1064A000FDF782FF8346C4A003F0DCFD4FF4807942
:1064B0000AE00D2D74D2DFE805F0071428476C833D
:1064C0008E99ADD8EFEDEC005346C0A2C1A1C2A099
:1064D000FFF70AFF002872D00125E9E0032C29D834
:1064E000E7E753460022BBA1C3A0FFF7FDFE28B19A
:1064F000C5A003F0B7FD0225002702E00027641CB9
:10650000E4B2032CD5D9C6A012E05346AFA2B1A184
:10651000C848FFF7E9FE28B103250027C6A003F00D
:10652000A1FD02E00027641CE4B2032CC1D9C8A07D
:1065300003F098FD3046FDF766FF5846FDF763FF10
:10654000384667B0BDE8F08FC6A003F08BFD4F461C
:1065500049466846FEF7FBFA982140A8FEF7F7FA8D
:1065600040AA0321012000F0BFFC40A8FEF7D8F9A3
:106570000346BFA239466846FDF78EFF534693A2F5
:1065800094A16846FFF7B0FE0028A4D00127042597
:10659000A4E7BFA003F066FD53468CA28DA100E0E6
:1065A000EDE0BEA0FFF7A0FE10B10127052502E037
:1065B0000027641CE4B2032C92D9C3A0B8E779E0A9
:1065C000534682A283A1C5A0FFF78EFE002871D09A
:1065D0000127062582E753467CA27EA1C8A0FFF7CB
:1065E00083FE002866D00127072577E7534677A268
:1065F00078A1CFA0FFF778FE28B1D2A003F032FD3A
:106600000825002702E00027641CE4B2032C8DD982
:10661000D2A08DE74F4649466846FEF798FA982182
:1066200040A8FEF794FA40AA0321012000F05CFC88
:1066300040A8FEF775F90346CEA239466846FDF735
:106640002BFF534661A2D0A16846FFF74DFE28B14B
:10665000CEA003F007FD0925002702E00027641CF7
:10666000E4B2032CA8D9CFA062E7534657A259A1A0
:1066700040A8FFF739FE28B1CFA003F0F3FC0A25AC
:10668000002702E00027641CE4B2032C94D9D0A0B8
:106690004EE727E012E0FFE749466846FEF757FA63
:1066A00053464AA24BA1CFA0FFF71EFE10B10B2507
:1066B000002713E70027641CE4B20FE7534643A208
:1066C00044A1CCA0FFF710FE28B1CEA003F0CAFC75
:1066D0000C25002702E00027641CE4B2032C96D9A5
:1066E000CDA025E74746534638A2D0A1BDA0FFF76D
:1066F000FBFD08B1012500E000255146CEA003F0C6
:10670000B1FC39463046FEF700FAD1A15046FEF7FB
:10671000C9F806001ED0D1A15046FEF7C3F8861D69
:106720004021CF48FEF7F1F920223146CC48FEF750
:106730006DF9CC4A04203118131811F8011C401EC1
:1067400083F8401010F0FF00F5D1C549C6A003F052
:1067500089FC02E0CBA003F085FC0DB1CEA004E0E3
:10676000641CE4B2032CBED9D0A003F07BFC3046FD
:10677000FDF749FE5846FDF746FE2846E1E630465D
:10678000FDF741FE5846FDF73EFE0020D9E6000029
:1067900044594E414D49435F504F52542121210DE0
:1067A0000A00000044594E414D49435F504F525436
:1067B000312121210D0A000044594E414D49435FCA
:1067C000504F5254322121210D0A00004552524FA0
:1067D000520000004F4B000041542B514943534796
:1067E000503D312C312C22636D6E6574222C222297
:1067F0002C22220D0A000000415424485454504FCA
:1068000050454E0D0A000000485454504F50454E1C
:10681000205355434553532121210D0A0000000008
:10682000485454504F50454E204641494C21212157
:106830000D0A0000BC1604084854545050415241FF
:10684000205355434553532121210D0A00000000D8
:106850004854545050415241204641494C21212135
:106860000D0A00006361736520332121210D0A00A8
:10687000415424485454505251483D436F6E7465FE
:106880006E742D4C656E6774682C25640D0A0000CB
:106890006361736520342121210D0A00415424488D
:1068A0005454505251483D436F6E74656E742D546C
:1068B0007970652C6170706C69636174696F6E2F9B
:1068C0006A736F6E0D0A00004854545052514820AC
:1068D0004641494C2121210D0A0000004154244821
:1068E0005454505251483D436F6E6E656374696FE6
:1068F0006E2C6B6565702D616C6976650D0A000004
:10690000415424485454505251483D557365722D9A
:106910004167656E742C506F73746D616E52756E45
:1069200074696D652F372E32392E300D0A00000044
:1069300041542448545450414354494F4E3D310D25
:106940000A00000048545450414354494F4E2053CC
:1069500055434553532121210D0A000048545450FA
:10696000414354494F4E204641494C2121210D0AB3
:106970000000000041542448545450444154413DC7
:1069800025640D0A000000003E3E000048545450AB
:1069900044415441205355434553532121210D0A6D
:1069A000000000004854545044415441204641499D
:1069B0004C2121210D0A000073656E6462756666C4
:1069C000205355434553532121210D0A0000000057
:1069D00073656E6462756666204641494C212121CB
:1069E0000D0A00004154244854545053454E440D60
:1069F0000A00000041542448545450444154413D3D
:106A0000300D0A004341534531312053554345531E
:106A1000532121210D0A00004341534531312046C5
:106A200041494C2121210D0A000000002448545402
:106A300050524543560000004341534531322072C5
:106A400065635F627566663A25732121210D0A0030
:106A5000636F6465223A3230300000006B65790064
:106A6000D44D0020783700202D2D2D3E43657274C3
:106A7000696669636174696F6E2E6B65793A257317
:106A80000D0A0000636174206973204E554C4C213F
:106A900021210D0A000000004341534531322053AB
:106AA00055434553532121210D0A000043415345CD
:106AB0003132206661696C2121210D0A000000003D
:106AC00070477047F0B52DED028B81B00C4605463E
:106AD00001F018FA2146284601F094F9214628468B
:106AE00001F0C0F92146284601F082FA21462846E5
:106AF00001F0A8FB96A003F0B5FA3220FDF754FC94
:106B0000064695F85C0002280BD2984951F82020DF
:106B100097A13046FDF7ACFC314698A003F0A2FAED
:106B200009E1924C083C207801287DD04FF4967101
:106B30006068FDF7EAFFD5F84900322100EE100A3F
:106B400030463D35F8EE408AFDF7DFFF9FED8D8A38
:106B500088EE880A10EE100A0DF028FA41EC100BAE
:106B600089A153EC102B3046FDF782FC3046FDF72F
:106B7000D7FE82B231466068FDF748FF6068FDF7D6
:106B8000CFFE87B2D5F80700322100EE100A30465A
:106B9000F8EE408AFDF7B9FF88EE880A10EE100A79
:106BA0000DF004FA41EC100B80A153EC102B304691
:106BB000FDF75EFC3046FDF7B3FE82B260683146F9
:106BC0003844FDF723FF6068FDF7AAFE87B2D5F8C9
:106BD0002600322100EE100A3046B8EEC08AFDF7DA
:106BE00094FFF2EE040A88EE200A10EE100A0DF06F
:106BF000DDF941EC100B72A153EC102B3046FDF780
:106C000037FC3046FDF78CFE82B26068314638446E
:106C1000FDF7FCFE6068FDF783FE87B2688D00EE2D
:106C2000100AB8EE408A00E08DE032213046FDF7D0
:106C30006CFFDFED680A88EE200A10EE100A0DF0F6
:106C4000B5F941EC100B64A153EC102B3046FDF765
:106C50000FFC3046FDF764FE82B26068314638446E
:106C6000FDF7D4FE6068FDF75BFE87B23221304647
:106C7000FDF74BFF15F83D0C6421B0FBF1F201FB71
:106C8000120259A13046FDF7F3FB3046FDF748FEEE
:106C900082B2606831463844FDF7B8FE6068FDF79F
:106CA0003FFE87B232213046FDF72FFFEA7F55A124
:106CB0003046FDF7DDFB3046FDF732FE82B26068FC
:106CC00031463844FDF7A2FE6068FDF729FE87B221
:106CD00032213046FDF719FFE8780090AB782A881A
:106CE0004CA13046FDF7C4FB3046FDF719FE82B2D9
:106CF000606831463844FDF789FE6068FDF710FE94
:106D000087B2A87900906B792A7949A13046FDF7BE
:106D1000AFFB3046FDF704FE82B26068314638446E
:106D2000FDF774FE6068FDF7FBFD45A0616803F0A8
:106D300099F90120207001B03046BDEC028BBDE80E
:106D4000F040FDF760BB44A003F08CF9F3E70000CE
:106D50003D3D3D3D3D4750535F416E616C797369E8
:106D6000733D3D3D3D3D3D0D0A00000064000020A7
:106D7000466978204D6F64653A25730025730D0AC6
:106D8000000000000050C3477B2274797065223AEE
:106D900022677073222C226C6F6E6769747564654C
:106DA000223A22252E3566222C000000226C6174C6
:106DB0006974756465223A22252E3566222C0000FE
:106DC00022686569676874223A22252E3166222C72
:106DD0000000000000007A44227370656564223A66
:106DE00022252E3166222C00227669657753746144
:106DF00074656C6C697465223A2225303264222CE9
:106E000000000000227374617465223A2225316407
:106E1000222C0000226461746154696D65223A225B
:106E2000253034642530326425303264000000009F
:106E3000253032642530326425303264227D0000F2
:106E40006770735F6D7174745F7061796C6F61648A
:106E50003D25730D0A0000006770735F6D717474D7
:106E60005F646174615F72656164793D3D47505351
:106E70005F4D5154545F444154415F524541445920
:106E80005F5945530D0A0000014800687047000033
:106E900000000020054A0021491C12F8013BC9B23C
:106EA00000F8013B0C29F7D170470000107AFF1F52
:106EB000F0B589B0054606A8FFF7ECFF002406AE42
:106EC0004FEA0D0707EB4401305DFFF769F9641CD9
:106ED000E4B20C2CF6D3182269462846FDF796FD3D
:106EE0000020287609B0F0BD70B58EB0154603A815
:106EF00000F056F84FF480663046FDF755FA044628
:106F00003146FDF702FE31462046FDF7FEFD1048F2
:106F1000114A124B01680F48126800680291C01CA8
:106F2000CDE900200EA231462046FDF7B5FA2146F4
:106F30001AA003F097F82046FDF7F2FC024621461E
:106F40002846FDF763FD2046FDF75DFA0EB070BDE3
:106F50007800002074000020080000206801002054
:106F60007B226465766963654964223A222573222F
:106F70002C2276657273696F6E223A222573222C59
:106F800022696D6569223A222573222C2263636986
:106F900064223A222573227D000000002573000040
:106FA00010B520A20446DCB007CA57AB83E807003F
:106FB00016221F4947A8FDF729FD0A2257A94AA80A
:106FC000FDF769FD0A20019001A80BF040FD802229
:106FD000184901A80BF048FD57A917A003F042F883
:106FE00020214FA8FDF7B3FD0A2211460DF5997037
:106FF000FDF783FD4FAB47AA012101A80BF01BFD54
:1070000053AB4BAA012101A80BF015FD00205A90AB
:107010002021009120464FAB5AAA802109F0E6F8C2
:107020005CB010BD6265617265722F6B657900009E
:10703000680100205243010825730000FEE72DE996
:10704000F04116460F460446FDF76AFC002520462F
:10705000FDF766FC00EBD0721CE02178392905D9D8
:10706000462901D9662901D8373900E03039CBB239
:1070700014F8011F392905D9462901D9662901D8F3
:10708000373900E0303903F00F0363F31F117955EE
:10709000641C6D1CB5EB620FDFDBC1070AD02178E1
:1070A000392905D9462901D9662901D8373900E09F
:1070B000303979552EB122F00101411A01EB6201FC
:1070C000318022F00101401A00EB6200BDE8F0813E
:1070D00070B50C4C0025C4F8A85201224FF400638F
:1070E0001146094804F52A7407F0ACFB65600420DA
:1070F00005F0EAFD01202060042005F0E5FD256093
:1071000070BD0000008040420004024070B50C4C8D
:107110000025C4F8A85201224FF400631146094823
:1071200004F52A7407F08EFB01266660042005F042
:10713000CBFD2660042005F0C7FD256070BD000072
:1071400000804042000402402DE9F04781460024BF
:107150004FF4006301222146134807F073FB00251A
:10716000124E2F464FF00108C6F8A872042005F011
:10717000ABFDC6F8A8826006040ED6F82C0208B152
:10718000641CE4B2042005F09FFD6D1CEDB2082DD7
:10719000EAD3B9F1000F04D0FFF79AFF2046BDE80B
:1071A000F087FFF7B3FFF9E7000402400080404298
:1071B0002DE9F041064601224FF4006311461148C3
:1071C00007F040FB104C0027C4F8A8723D464FF072
:1071D0000108F009C4F8AC027006060E042005F0A0
:1071E00073FDC4F8A882042005F06EFDC4F8A872EF
:1071F000042005F069FD6D1CEDB2082DE9D3BDE852
:10720000F0810000000402400080404270B501227D
:107210004FF4006311460A4807F014FB094C0120A3
:10722000C4F8AC02C4F8A802082004F52A7405F0DA
:107230004BFD00256560082005F046FD256070BD0A
:10724000000402400080404210B501224FF4006368
:1072500011460B4807F0F6FA0A4C0020C4F8A802C1
:10726000C4F8AC02082004F52A7405F02DFD0120B5
:1072700020606060BDE81040082005F025BD0000DA
:10728000000402400080404270B500244FF40063C7
:10729000012221460F4807F0D5FA0F4D0126C5F807
:1072A000AC62042005F010FDC5F8A862042005F0CA
:1072B0000BFD07E0641CE4B2FA2C03D9FFF7C4FF0E
:1072C000012070BDD5F82C020028F3D1C5F8A80222
:1072D00070BD000000040240008040427047000082
:1072E0002DE9F047164C00270546C4F888720520A2
:1072F00005F0C8FC0026B84605F0010001274FF450
:10730000167900BFC4F8887230B1484605F0DCFC3D
:10731000C4F88882C82005E0C82005F0D5FCC4F870
:107320008882484605F0D0FC6D08761CF6B205F060
:107330000100082EE6D3C4F88872BDE8F08700008B
:10734000000041422DE9F04385B00027064603972F
:107350000497144689469068FDF7E2FA034630A286
:10736000082103A8FDF798F84846FDF7D9FA054625
:1073700003A8FDF7D5FA284414308046FDF714F829
:10738000050044D0A068FDF7CBFA2178CDE90010C4
:107390004B4624A241462846FDF77EF82A46414640
:1073A00027A002F05FFE2846FDF7BAFAD6F8E026DD
:1073B000B8462AA3126D2946CDE90072024606F1AD
:1073C0000C008146029704F00DFC07462846FDF7A5
:1073D0001AF8022F1DD0A068FDF7A2FAD6F8E01621
:1073E00002461FA3096DCDF80880CDE9008148460B
:1073F000A16804F0F7FB0446022805D11AA002F0A8
:1074000031FE00F0D9FB204605B0BDE8F083052031
:10741000FAE71DA002F026FE00F0CEFB3846F3E7A7
:107420002564000041542B4D50554245583D2225BE
:1074300073222C25642C302C25640D0A00000000DA
:107440000D0A746F74616C53697A653A25642C6413
:107450006573743A25730D0A000000003E000000B9
:107460004F4B0D0A00000000322E4D515454507500
:10747000626C6973682073656E642074696D656FF2
:1074800075740D0A00000000312E4D515454507592
:10749000626C6973682073656E642074696D656FD2
:1074A00075740D0A000000002DE9F34FADF5337D32
:1074B0008B46009176A378A250218FA8FCF7ECFFB1
:1074C00077A002F0CFFD40F67460FCF76DFF8E9060
:1074D00040F6AD50FCF768FF07468E9800B3FFB149
:1074E0008FA974A002F0BEFD01228FA904A806F0A6
:1074F000CFF9044673A002F0B5FDACB1214675A0EA
:1075000002F0B0FD04A806F089F98E98FCF77BFF25
:107510003846FCF778FF03200DF5357DBDE8F08F88
:1075200074A002F09FFDF0E778A002F09BFD7EA022
:1075300002F098FD079E40F6AC50B6FBF0F1491CF6
:107540008CB2B6FBF0F100FB11605FEA000801D1DC
:10755000641EA4B2A246034600255246314676A0D8
:1075600002F080FD8048B290B3980C30B09067E094
:1075700000207E49641EA4B2086002D340F6AC59D4
:1075800000E0C1466D1CADB240F674618E98FDF707
:10759000BCFACDF80CB00096CDE901A5744A40F6CE
:1075A0007461B29B8E98FCF777FF40F6AD51384678
:1075B000FDF7ABFAB1AB4A46394604A806F05CFACF
:1075C000010009D06BA002F04DFD04A806F026F9D9
:1075D0006CA002F047FD3FE039468E98FDF70AFAAD
:1075E0006CA18E98FDF706FA3421A3A8FDF7AFFA37
:1075F0008E98FDF795F94FF00009CDE9009066A24D
:10760000C821A3A8B29BFCF747FFA3A8FDF788F900
:107610000246A3A9B09804F0B7FA142005F032FB93
:107620008E981CB3FDF77CF902468E99B09804F051
:10763000ABFA642005F026FB214661A002F012FDA2
:10764000002C95D104A806F0E9F88FA806F0C6FB37
:107650008FA960A002F006FD8E98FCF7D4FE384694
:10766000FCF7D1FE5FA002F0FDFC55E7FDF758F9ED
:107670000246B39860A3D0F8E006006DCDF80890FC
:10768000CDE900908E99B09804F0ACFAD1E70000F3
:10769000303A2F44434D490025732F2573000000D5
:1076A0004D5154545075626C6973685F46696C65DE
:1076B0000D0A000066696C656E616D65323A25736E
:1076C0000D0A00005075626C69736846696C653319
:1076D0000D0A00006F70656E2066696C652066613A
:1076E000696C207265733A25642121212E2E2E0D9E
:1076F0000A0000007061796C6F61643D3D6E756CCD
:107700006C2121212E2E2E0D0A0000006F70656E57
:107710002066696C65207375636573732121212E62
:107720002E2E0D0A000000005075626C69736846C9
:10773000696C65340D0A000066696C6573697A6569
:107740003A25642C7472616E5F74696D65733A25B5
:10775000642C72656D61696E5F6C656E6774683A02
:1077600025640D0A00000000680100201C000020B4
:107770000C170408665F726561642C6572723A25A5
:10778000640D0A0075706C6F6164206661696C0D30
:107790000A000000227D000041542B4D5055424507
:1077A000583D222F64657669636563616D6572611A
:1077B0002F2573222C25642C302C25640D0A000003
:1077C0000D0A7472616E5F74696D65733A25640D9C
:1077D0000A000000665F756E6C696E6B3A25730D6A
:1077E0000A0000005075626C69736846696C652018
:1077F000656E640D0A0000004F4B0D0A000000008A
:107800002DE9F0419CB00E4604461D461746642102
:1078100003A8DDF88880FDF79AF9334611A26421A8
:1078200003A80097FCF738FE03A8FDF779F8024695
:10783000D4F8E00603270021036D8DE88A00836BEE
:1078400004F10C0003A9074604F0CCF9040005D1AB
:1078500043462A463146384607F028FD1CB02046EC
:10786000BDE8F08141542B4D5355423D22257322F2
:107870002C25640D0A0000002DE9F34F48A1ADF559
:10788000137D0646D1E90001CDE98C01802167A86E
:10789000FDF75DF9802101A8FDF759F98C98019059
:1078A000BDF83402ADF808009DF836028DF80A00E4
:1078B0003046FDF735F801AD024631462C46E81D4D
:1078C000FDF7A4F83046FDF72BF837492044096846
:1078D00051F8032F40F8072F4A6842608968816099
:1078E00001A932A002F0BEFB0A20219021A80BF0D2
:1078F000AEF84FF00009CDF82492CDF82092CDF8E3
:107900002892CDF82C92ADF838928EAA88A93046EC
:10791000FFF795FB802288A921A80BF0A5F880210C
:1079200067A8FDF714F901A8FCF7FAFF80B201215E
:1079300001EB101610F00F010AD0C1F1100128441C
:107940000A46FDF7DAF800240DF5CE7BAA4611E0D1
:10795000761EB6B2F7E700250BEB04180AEB041706
:1079600043463A46012121A80BF065F86D1C102D05
:10797000F6DB641CB442EEDBCDF83C924020949CD4
:10798000009067AB8FAA8021204608F02FFC21468B
:107990000AA002F067FB0DF5157DBDE8F08F000031
:1079A0006265617265722F00740000204145536961
:1079B0006E7075743A25730D0A000000626173657C
:1079C00036346F75743A25730D0A00007CB5069C39
:1079D000CDE900121D46034602A221462846FCF7C7
:1079E0005BFD7CBD41542B4D495053544152543D95
:1079F000222573222C25642C252E640D0A000000FC
:107A000030B414460D4603462146284630BC01A238
:107A1000FCF742BD41542B4D434F4E4E4543543D20
:107A2000312C25640D0A000001A2FCF735BD0000D1
:107A300041542B4D444953434F4E4E4543540D0A38
:107A4000000000007CB5069CCDE900121D460346EF
:107A500002A221462846FCF71FFD7CBD41542B4D58
:107A6000434F4E4649473D222573222C222573223F
:107A70002C222573220D0A003EB5DDE906458DE86E
:107A80000E00034602A229462046FCF705FD3EBD36
:107A900041542B4D5055423D222573222C25642CF8
:107AA000302C222573222C25640D0A007CB5DDE9DB
:107AB0000645CDE90013034602A229462046FCF7FD
:107AC000EBFC7CBD41542B4D50554245583D222581
:107AD00073222C25642C302C25640D0A0000000034
:107AE00001A2FCF7D9BC000041542B4D4950434C36
:107AF0004F53450D0A00000001A2FCF7CDBC000069
:107B000041542B4D51545453544154550D0A0000C7
:107B100038B51C4615460346009103A22146284667
:107B2000FCF7BAFC38BD000041542B4D5355423D83
:107B3000222573222C25640D0A00000030B414465F
:107B40000D4603462146284630BC01A2FCF7A4BCE2
:107B500041542B4D554E5355423D222573220D0A5B
:107B600000000000FEE704F0ABBB04F0EFBB04F044
:107B7000FFBB000010B507A002F074FA0D48012108
:107B8000817003214170BDE8104041F288311C3002
:107B900002F0D2BB4D7174744D7174744469736397
:107BA0006F6E6E65637443616C6C6261636B0D0A2A
:107BB000000000008400002010B503A002F052FA7B
:107BC00009490120487010BD4D7174744D71747471
:107BD000446973636F6E6E65637443616C6C62615C
:107BE000636B320D0A000000840000202DE9F04391
:107BF00087B04FF4406008F079FD40F6014008F08E
:107C000075FD40F6024008F071FD4FF4506008F039
:107C10006DFD6E4F4FF4007422460D21384606F07C
:107C200076FDDFF8AC8180220D21404606F06FFD25
:107C300065102A460D21404606F069FD22460D21B9
:107C4000404606F064FDA60032460D21404606F08F
:107C50005EFDDFF8809140220D21484606F057FD79
:107C60002A460D21484606F052FD22460D2148467F
:107C700006F04DFD40220D21384606F048FD8022D9
:107C80000D21484606F043FD10220D21384606F02E
:107C90003EFD234600220221384606F0D3FD23464E
:107CA00003220021384606F0EFFD80230022022146
:107CB000404606F0C7FD802303220021404606F01F
:107CC000E3FD2B4600220221404606F0BBFD2B4679
:107CD00003220021404606F0D7FD23460022022160
:107CE000404606F0AFFD234603220021404606F041
:107CF000CBFD334600220221404606F0A3FD334669
:107D000003220021404606F0BFFD4023002202214D
:107D1000484606F097FD402303220021484606F01E
:107D2000B3FD2B4600220221484606F08BFD2B4670
:107D300003220021484606F0A7FD23460022022127
:107D4000484606F07FFD234603220021484606F000
:107D50009BFD402300220221384606F073FD40239C
:107D600003220021384606F08FFD802300220221E5
:107D7000484606F067FD802303220021484606F0AE
:107D800083FD102300220221384606F05BFD1023FC
:107D900003220021384606F077FD00202021CDE99E
:107DA00000010290039004900590684604F016FFCD
:107DB000012004F029FF04F009FF002211464E20A3
:107DC00007F06CFB07B0BDE8F08300000000024044
:107DD000000802400004024003460DE002782A2A0F
:107DE00003D0202A01D37A2A01D9FF2070472C2AF8
:107DF00001D1491EC9B2401C0029EFD1C01AC0B23E
:107E00007047000038B50A46054614A11046FCF735
:107E100049FD04460621FFF7DFFFFF2805D0204477
:107E2000694600F03DFA85F84E0007212046FFF72D
:107E3000D3FFFF2805D02044694600F031FA85F8C9
:107E40004F0009212046FFF7C7FFFF2805D0204437
:107E5000694600F025FAC5F8630038BD24474E474F
:107E600047410000F8B50A46064624A11046FCF733
:107E700019FD05460221FFF7AFFFFF2805D0284472
:107E8000694600F00DFA86F85C000024E01CC1B2DF
:107E90002846FFF7A1FFFF280AD02844694600F0D2
:107EA000FFF93119641CE4B281F850000C2CEDD3B9
:107EB0000F212846FFF790FFFF2805D02844694688
:107EC00000F0EEF9A6F85D0010212846FFF784FFC8
:107ED000FF2805D02844694600F0E2F9A6F85F00C3
:107EE00011212846FFF778FFFF2805D0284469466E
:107EF00000F0D6F9A6F86100F8BD000024474E470F
:107F0000534100002DE9F84F0C4682464FF000081F
:107F100035A12046FCF7C6FC0546C0790321303860
:107F2000C7B22846FFF758FFFF2805D02844694606
:107F300000F0B6F98AF80000002651E02AA1204698
:107F4000FCF7B0FC044600254FF0040B0BEB85005A
:107F5000C1B22046FFF740FFFF283ED020446946CB
:107F600000F09EF908EB880202EB0A0989F801008B
:107F7000052000EB8500C1B22046FFF72DFFFF284A
:107F80002BD02044694600F08BF989F802000620C6
:107F900000EB8500C1B22046FFF71EFFFF281CD072
:107FA0002044694600F07CF9A9F80300072000EBA3
:107FB0008500C1B22046FFF70FFFFF280DD02044F7
:107FC000694600F06DF989F805006D1C08F10100A3
:107FD000EDB200F0FF08042DB8D3761CF6B2641C95
:107FE000BE42ABD3BDE8F88F24475047535600003C
:107FF0002DE9F0430A462DED028B044681B07FA1A6
:108000001046FCF74FFC05460121FFF7E5FE42F262
:1080100010784FF06409FF281ED02844694600F00C
:108020003FF906469DF800100A2000F031F9B6FB32
:10803000F0F0B0FBF8F184F841104946B0FBF1F2E2
:10804000B2FBF1F309FB132284F84220B0FBF9F2F2
:1080500009FB120084F8430003212846FFF7BCFE09
:1080600006469FED688AFF283ED0A819694600F0B1
:1080700017F907469DF80000801CC1B20A2000F0E5
:1080800007F9B7FBF0F060649DF80000801CC1B2F6
:108090000A2000F0FDF8B7FBF0F100FB117000EED4
:1080A000100A05210A20B8EE400A00F0F1F8616CD0
:1080B000484300EE900A9DF80000C0F10500C1B2EF
:1080C000B8EE601A0A2000F0E3F800EE900AF8EE2D
:1080D000600A20EE800AC0EE080A31EE200ABCEEEB
:1080E000C00A10EE100A6064626C314646A001F0CE
:1080F000B9FF04212846FFF76FFEFF2802D0285C55
:1081000084F8480005212846FFF766FE0646FF284A
:1081100040D0A819694600F0C3F807469DF8000052
:10812000801CC1B20A2000F0B3F8B7FBF0F044F8AD
:10813000490F9DF80000801CC1B20A2000F0A8F889
:10814000B7FBF0F100FB117000EE100A05210A20C8
:10815000B8EE400A00F09CF82168484300EE900A0F
:108160009DF80000C0F10500C1B2B8EE601A0A2007
:1081700000F08EF800EE900AF8EE600A20EE800A19
:10818000C0EE080A31EE200ABCEEC00A10EE100A5A
:1081900044F849093146D4F8492022A001F062FF91
:1081A00006212846FFF718FEFF2802D0285C84F835
:1081B0004D0009212846FFF70FFEFF2818D028445C
:1081C000694600F06DF8B0FBF8F184F840104946BC
:1081D000B0FBF1F2B2FBF1F309FB132284F83F206C
:1081E000B0FBF9F209FB120000F5FA60A4F83D00BB
:1081F00001B0BDEC028BBDE8F0830000474E524D4C
:108200004300000000007042706F73783A25642CC0
:10821000677073782D3E6C617469747564653A2576
:10822000640D0A00706F73783A25642C6770737858
:108230002D3E6C6F6E6769747564653A25640D0A2E
:108240000000000038B50A4604460FA11046FCF7AE
:1082500029FB05460721FFF7BFFDFF2813D028445F
:10826000694600F01DF8A4F867009DF80000032897
:1082700009D2C0F10300C1B20A2000F009F834F8B5
:10828000671F4843208038BD24474E56544700009E
:108290000246012000E05043491EC9B2FBD270479C
:1082A0002DE9F04F4FF0000A8B468046D1465546E7
:1082B0005446564601782D2902D146F00206401C4C
:1082C00001782C2908D02A2906D02E290AD0303945
:1082D0000A290AD300252C46B00701D508F1010868
:1082E000002718E046F00106401CF10702D0641C8C
:1082F000E4B201E06D1CEDB2401CDBE7E81B401E60
:10830000C1B20A20FFF7C4FF18F80710303900FB8C
:1083100001AA7F1CFFB2AF42F0D3052C00D905247F
:108320008BF8004000270EE0E01B401EC1B20A207F
:10833000FFF7AEFFEA1902EB08014978303900FB7C
:1083400001997F1CFFB2A742EED321460A20FFF716
:108350009FFF0AFB0090B10700D54042BDE8F08FB7
:108360007047000010B507A001F07CFE0A48417874
:10837000817003214170BDE8104042F210711C3041
:1083800001F0DABF4E6574776F726B4661696C48B5
:10839000616E646C650D0A008400002010B507A0B2
:1083A00001F060FE0948FDF7A7FE0949094806F0FB
:1083B000E8FEBDE8104008A001F054BE4E65747799
:1083C0006F726B496E69740D0A000000896E0008B7
:1083D000757B0008C84000204E6574776F726B494A
:1083E0006E69742066696E6973680D0A000000008A
:1083F0002DE9F3436B4C02276B4E6078A5B088469D
:10840000002530B1012810D002287CD0032817D1D4
:10841000BCE02078002805D0644806F0B5FE20B105
:10842000FFF7A0FF27B0BDE8F0830520307060A003
:1084300001F018FEE078012803D063A001F012FEDD
:10844000ABE0259810B966A001F00CFE802104A8CD
:10845000FCF77DFB04A803F0A3FC65480646FCF787
:108460005FFA0246634831468146FCF7CFFA61491C
:1084700040318846A1F19000FFF7FEF9201D4246E9
:1084800090E8011149460DF10409009689E80111AF
:1084900004AB464806F0C2FC4FF416764FF4FA7867
:1084A000B0B1FFF75FFF414806F0BEFD032003F0C7
:1084B0006FFC304604F0E6FB152003F069FC4046F3
:1084C00004F0E0FB4CA001F0CDFD09F0D1FFA9E7DD
:1084D00051A001F0C7FD25A808F074F9554B012201
:1084E000009532482599FFF78BF925A807F036F853
:1084F000514B012200952D482599FFF781F925A8B8
:1085000007F044F800E017E04B4B012200952748A4
:108510002599FFF775F949A001F0A4FD032003F0A8
:1085200037FC304604F0AEFB112003F031FC40462E
:1085300004F0A8FB677030E00620307006F04CFBBA
:10854000207818B9194806F06FFD65704048017829
:10855000012904D03F4C2078012808D00CE0057098
:108560003DA001F07FFD404601F0A6FB04E0611C48
:108570000E48FEF799FF2770424C207801280CD155
:108580004148006801F0ECFB257006E005481C300E
:1085900001F080FF08B1A0786070044806F037FC55
:1085A00040E700008400002022000020C840002096
:1085B0004E4554574F524B5F434F4E4E45435449DF
:1085C0004E470D0A000000004E4554574F524B5F76
:1085D000434F4E4E454354494E47210D0A0000007B
:1085E000746F7069633D3D4E554C4C0D0A000000A0
:1085F00068010020244E00203E436F6E6E65637458
:10860000204D515454206572726F72217265626FF1
:108610006F74696E670D0A003E436F6E6E6563741A
:10862000204D5154542053756363657373210D0AB3
:1086300000000000010801087D9800083E4D5154DB
:1086400054537562736372696265210D0A000000FC
:10865000230000200C4A02204D6F6462757373651D
:108660006E64666C61673D3D4D4F444255535F48B3
:108670004156455F444154415F53454E445F59451F
:10868000530D0A005C0000206000002010B50DA012
:1086900001F0E8FC0F4C207860B90F4803F0B2F805
:1086A0000D480C3806F02EFD48B10CA001F0DAFCA4
:1086B00009F0DEFEBDE8104010A001F0D3BC01209F
:1086C0002070F7E74E6574776F726B537461727444
:1086D0000D0A000084000020D44000204E6574770D
:1086E0006F726B5374617274206661696C212072C1
:1086F00065626F6F74696E670D0A00004E6574776E
:108700006F726B53746172742066696E6973680D61
:108710000A00000070B505460D480E4614468078E4
:1087200008B1122009E02878012808D0022806D0D4
:10873000032804D0042802D00120107070BDFBF77C
:10874000CFFD6E61FBF7D0FD0020207070BD0000F2
:10875000F000002070B586B000F070F829480024C1
:1087600004638470C4700472C471C460C4618461A1
:10877000446144708471214600F134025454491C10
:10878000C9B20829FAD3047144718462046200F00A
:10879000D5FE00F0A9FE00F073FE00F011FF00F01E
:1087A00035FF80261848CDE901064FF6FF7000908E
:1087B00003253F23154A00211548CDE9034500F064
:1087C000D5F905AA13A13F2000F0BCFA1548CDE960
:1087D00001064FF6FE700C4A00903E23121F002146
:1087E0001148CDE9034500F0C1F905AA0FA13E20CB
:1087F00000F0A8FA00F0BCFC06B0BDE8704000F044
:1088000023B80000F00000208C4F02208851022085
:10881000A197000875432F4F532D49492049646C97
:10882000650000008C4D0220D597000875432F4F3E
:10883000532D494920537461740000000149002000
:10884000088070474C010020704700000449C87937
:10885000012804D18878FF2801D2401C8870704715
:10886000F000002070B5144CE079012822D1FBF70C
:1088700037FD0546A07820B1401E10F0FF00A07023
:1088800013D1E07888B900F005FF0C48617950F801
:108890002100A0622279914207D0816B491C81633B
:1088A000E068401CE060FBF73BFD2846BDE87040F7
:1088B000FBF71ABD70BD0000F00000208C510220B3
:1088C00010B5094CE07901280CD1FBF709FDA1781E
:1088D00021B9E178FF2901D2491CE170BDE81040BF
:1088E000FBF702BD10BD0000F000002010B50D4CDC
:1088F000E079012814D1FBF7F3FCE17831B1491E8E
:1089000011F0FF01E17001D1A17819B1BDE810406B
:10891000FBF7EABCFBF7E8FCBDE8104000F096BEB0
:1089200010BD0000F000002070B505460D4800782D
:1089300008B1002070BDFBF7D3FC0B490C680CB1EB
:1089400062680A60FBF7D0FC4CB1032020702581DF
:108950000020606005A06061204600F087FD204691
:1089600070BD0000F2000020000100203F00000068
:108970002DE9F0470646007889461446032801D0C1
:10898000012008E02548007808B1022003E02448CF
:10899000007818B10D201070BDE8F087FBF7A0FC3F
:1089A00007463089002530B1401E30813846FBF73C
:1089B0009BFC2570F0E7DFF86C80D8F8000010F819
:1089C000301F41F001010170457040F8049C3046B1
:1089D00000F028FD3846FBF787FC00F037FEFBF778
:1089E0007FFC0746D8F8000090F8311031B1022919
:1089F00006D0314600F006FD0A2002E0257001E0B5
:108A00000E202070D8F8000080F8305080F83150E7
:108A1000C5613846BDE8F047FBF766BCF2000020B0
:108A2000F30000201001002070B5044600780328F0
:108A300001D0012070BDFBF753FC0546A07A58B168
:108A4000002301221946204600F0AAFC2846FBF725
:108A50004BFC00F0FBFD09E020894FF6FF718842D6
:108A600006D2401C20812846FBF73EFC002070BD4A
:108A70002846FBF739FC332070BD000010B5094CC7
:108A8000E07900280CD100F005FE607906492071DC
:108A900051F82000A0622062BDE81040FBF727BC1F
:108AA00010BD0000F00000208C51022010B5022003
:108AB00000F09CFAFBF714FC084C0021E161FBF785
:108AC00013FC142000F092FAFBF70AFCE1696161E3
:108AD00001216170BDE81040FBF706BCF0000020EA
:108AE000704700002DE9FE431C4615460F468046A0
:108AF000FBF7F6FB1A49097821B1FBF7F5FB3C209F
:108B0000BDE8FE83174E56F8241019B1FBF7ECFBB5
:108B10002820F5E7012146F82410FBF7E5FB0023A8
:108B20002A463946404600F075F900250146009571
:108B300001952B462A462046029500F0BBFD070012
:108B400007D0FBF7CDFB46F82450FBF7CDFB3846AA
:108B5000D6E7054800780128F9D100F077FDF6E75F
:108B6000F20000208C510220F70000202DE9FF4F79
:108B700083B01C46DDE91386DDE9119792468B46EA
:108B8000FBF7AEFB1D49097829B1FBF7ADFB3C2093
:108B900007B0BDE8F08F1A4D55F8241019B1FBF756
:108BA000A3FB2820F4E7012145F82410FBF79CFBE8
:108BB00032463946484600F055FE3346524659463D
:108BC000039800F027F90097CDE9018601464A464F
:108BD0002046109B00F06EFD060008D0FBF780FBDE
:108BE000002145F82410FBF77FFB3046D0E705480D
:108BF00000780128F9D100F029FDF6E7F200002005
:108C00008C510220F7000020704700002DE9F0474A
:108C100006464048007810B14020BDE8F0873F2E5E
:108C200005D0FBF75DFB0746FF2E02D005E03E2096
:108C3000F3E73948006890F83260DFF8E09059F8BF
:108C400026405CB1012C0ED094F83420344894F8BE
:108C50003530815C994381540AD00FE03846FBF7E8
:108C600043FB4320D9E73846FBF73EFB3D20D4E7E2
:108C70002C4894F83620017891430170E16911B1D4
:108C8000204600F0BFFB606A08B100F01DFC4FF009
:108C90000008C4F82C80244D84F8308084F831809A
:108CA0002878FF2801D2401C28703846FBF71CFBAF
:108CB00000F074FBFBF714FB0746287808B1401E50
:108CC0002870204600F03CF818480178491E0170D1
:108CD00049F82680A169404691B160694861D4E9AC
:108CE00005018161124801686161046011A0E064BE
:108CF0003846FBF7F9FA10480078012806D007E05B
:108D0000616988610D4960690860EBE700F09EFCCD
:108D1000002082E7F2000020100100208C51022088
:108D200024010020F6000020F3000020F8000020BD
:108D3000140100203F000000F70000201C0100206B
:108D40007047704770B5054611480E4614460078C6
:108D500010B11220107070BDFBF7C2FA0146FF2D52
:108D600003D10C48006890F832500B4850F82500A9
:108D7000432540B1012806D0C6640846FBF7B4FA83
:108D80000020207070BD0846FBF7AEFA257070BD5C
:108D9000F2000020100100208C5102207047704723
:108DA0002DE9F0410446002008600D464860FBF7BD
:108DB00097FA0146FF2C03D11448006890F832401E
:108DC000134850F8240058B1012809D0027CD2077A
:108DD0000CD0D0E9027600240846FBF785FA0BE0B8
:108DE0000846FBF781FA4320BDE8F0810846FBF70F
:108DF0007BFA4520F8E7641C01CF0028FBD0A000D7
:108E00002860301B800068600020EDE71001002022
:108E10008C51022010B5141F00232360A2F1080317
:108E20004FF480541C601B1F15241C601B1F14244E
:108E30001C601B1F13241C601B1F12241C601B1FA3
:108E400011241C601B1F10241C601B1F09241C60A4
:108E50001B1F08241C601B1F07241C601B1F0624EB
:108E60001C601B1F05241C601B1F04241C601B1F8F
:108E700003241C601B1F02241C601B1F01241C6098
:108E80001B1F24061C601B1F1860A2F15000314BF1
:108E90000360001F4FF012330360001F4FF00333D5
:108EA0000360001F4FF002330360001F5B1003607C
:108EB000001F01603121001F0160001F302101608F
:108EC000001F29210160001F28210160001F2721A8
:108ED0000160001F26210160001F25210160001F85
:108EE00024210160001F23210160001F2221016055
:108EF000001F21210160001F20210160001F192196
:108F00000160001F18210160001F17210160001F70
:108F100016210160001F4FF011310160001F19017F
:108F20000160001F4FF009310160001FD90001608E
:108F3000001F4FF007310160001F4FF00631016044
:108F4000001F4FF005310160980042F8C40D104633
:108F500010BD0000BD97000870B50446FBF7C0F9CE
:108F600003461D48FF2C006805D090F83200A0424F
:108F700004D1012503E090F83240FAE700251748B4
:108F800050F8240058B101280ED090F83420144C29
:108F900090F83560A15CB143A1540AD00FE01846A7
:108FA000FBF7A2F9482070BD1846FBF79DF9432056
:108FB00070BD0C4990F836400A78A2430A7010F848
:108FC000301F41F0080101701846FBF78DF90DB113
:108FD00000F03CFB002070BD100100208C510220ED
:108FE00024010020F60000207047000070B5044600
:108FF00013480078002821D11248007800281DD19C
:10900000002C1BD0FBF76CF903460F480F4D01688D
:1090100091F8340091F835602A5CB2432A5405D1A6
:109020000B4891F836500278AA4302701846CC6279
:10903000FBF75AF9BDE8704000F008BB70BD0000B6
:10904000F2000020F3000020100100202401002085
:10905000F600002010B5124C24780CB1552010BD3C
:10906000104C24780CB1322010BDC8249B1C6343E3
:109070004FF47A74B3FBF4F34FF4616410FB04F023
:10908000C1EB011100EB8100104400EBC00101EBCA
:10909000001003EBC000FFF7A9FF002010BD000087
:1090A000F2000020F30000202DE9F04100F04CF820
:1090B000FBF716F9234D296B491C2963FBF714F9BB
:1090C000E87901283BD1687A0126002720B10128E0
:1090D00035D0022802D06F72EC6A2CE06E72FBE78A
:1090E000FBF7FEF8E16A19B3491EE16220D194F85A
:1090F000301011F0370F06D001F0C80184F830109D
:1091000084F8316001E084F8317094F83010090778
:109110000ED494F83610AA791143A971094994F82C
:109120003420343194F835C08B5C43EA0C038B5403
:109130006469FBF7D9F894F832003F28D0D1BDE834
:10914000F0810000F000002005480188491C89B228
:109150000180022903D30021018000F003B8704789
:109160004C01002001480068FFF75EBC440100206C
:1091700070B588B04FF420712E4800F017FA4021E6
:109180002D4800F013FA00202A4904466423421CAB
:1091900000EB8000154601EBC00092B202EB8202A8
:1091A000037001EBC20280F82540C26023A2026274
:1091B000A8B20F28EBD300EB800001EBC0001FA288
:1091C000037080F82540C46002621D481E4A046096
:1091D0001C480480102010801C4801600120FFF70B
:1091E000A3FB1B4D28600020FFF79EFB194E05AA2C
:1091F00019A130602868FFF78DFA05AA1BA1306815
:10920000FFF788FA802102910320CDE903401C4A30
:109210004FF6FD70CDE90002032302F5FE72002136
:109220001848FFF7A3FC06AA17A10320FFF78AFD41
:1092300008B070BD60590220E05D02203F000000D0
:109240003C0100203A0100203801002048010020A4
:10925000400100204401002075432F4F532D494900
:1092600020546D724C6F636B0000000075432F4FEC
:10927000532D494920546D725369676E616C00002B
:10928000E05B0220E592000875432F4F532D4949BA
:1092900020546D7200000000032280F825200F4A40
:1092A0000129126814D0816991B111444161017D95
:1092B0000B4A01F0070102EBC10100230A680860B4
:1092C00042B1C26010618A88521C8A800361704773
:1092D000C169EAE70122C360F7E700003C01002012
:1092E000E05D022008B5DFF86880DFF868901A4D6D
:1092F0006A460021D8F80000FFF73AFBFFF7E0FAD2
:109300002868401C286000F00700022759F8304008
:1093100013E060692968E66888420DD1204600F0B4
:109320001DF894F8240002280CD084F82570626897
:1093300012B12046A16890473446002CE9D1FFF7CE
:10934000D5FAD5E701212046FFF7A6FFEFE7000099
:1093500044010020E05D02203C01002010B5017DA9
:109360000D4A01F0070102EBC10200231468C16835
:10937000844203D1116029B10B6103E00469E1600B
:1093800001B10C61012180F82510C3600361908850
:10939000401E908010BD0000E05D0220704700007C
:1093A000F0B50E460146847A13480027045D0D1976
:1093B000ED7A405D00EBC400C5B2104850F82500BE
:1093C000C762066290F83060964380F8306080F89B
:1093D000313032070BD40A4A90F83630967933434D
:1093E0009371343290F83560135D3343135500F0B8
:1093F00009F82846F0BD0000DE1304088C51022055
:10940000F000002010B590F8342090F835408B180B
:10941000DA7AA243DA7204D18A7A90F8360082436B
:109420008A7210BD30B5104900F10B020B6A43F887
:109430001C0F1C7E5B7EA55C1D43A5540A6A837AC3
:1094400092F836402343837292F8340001F13404D9
:1094500092F83550235CAB43235404D192F8362064
:1094600088799043887130BDF0000020002282721C
:1094700011464318491CC9B2DA720829F9D370475A
:1094800010B550210D4800F091F800200B4A03461A
:10949000411C02EB00108CB202EB04140370446018
:1094A00007A4C46088B20428F2D302EB001004A120
:1094B00003704360C1600348026010BD2058022061
:1094C0003F0000002C010020D0E9001200232AB147
:1094D000116001B14A60806843627047C268002928
:1094E0005160F8D04B60F6E710B5F021104800F05D
:1094F0005DF800200E490346421C00EB400094B288
:1095000001EBC00004EB440401EBC40403704460AD
:1095100008A4446190B20928EED300EB400001EBAF
:10952000C00004A20370436042610348016110BDA2
:109530009C4C02203F000000F000002000B540F2EB
:109540009451164800F032F84FF48071144800F03E
:109550002DF8124A0020411C0B46C9B2C0EBC000D6
:1095600000EB4000C1EBC10102EB800001EB4101C7
:1095700002EB810141610B49C164D8B21028EAD3E2
:10958000C0EBC00000EB400002EB8000054B002167
:10959000C364416104484262C16200BD8C52022032
:1095A0008C51022034950008F0000020002203E0D6
:1095B000491E00F8012B89B20029F9D1704700003B
:1095C00010B578210E48FFF7F1FF0D49002000BFCC
:1095D00000EB400201EBC20202F118035360401C91
:1095E00008A380B253610428F2D300EB400001EBE2
:1095F000C0000022426003A242610348016010BD26
:10960000705802203F0000003001002010B5782182
:109610000C48FFF7CBFF0B4A0020411C8BB200EB3C
:10962000400003EB430302EBC30342F8303088B23F
:109630000428F2D300EB4000002142F83010024829
:10964000026010BDE85802203401002070B5FAF71E
:1096500047FE0E4C0546A07898B9E07888B900F02E
:1096600019F80B49607951F82010A16222799042D3
:1096700007D0886B401C8863E068401CE060FAF704
:1096800048FE2846BDE87040FAF72EBEF0000020E4
:109690008C5102200649054A01F134038879105C97
:1096A0001B5CD25C02EBC00048717047DE130408FB
:1096B000F00000202DE9F05F9846DDE90ABA9146F6
:1096C0000D460746FAF70CFE324E746A002C5CD049
:1096D000616918347162FAF707FE44F8185CA776DE
:1096E000002525766576656144F80CBC44E905A93A
:1096F0000C9824F8080C24F8068CE577FA082277F1
:1097000007F00701012000FA02F2E176A277884013
:1097100060776560E560A5602562A56265621EA050
:10972000E562C4E90C500020B4F1180404EB800198
:10973000401C0D6510F0FF00F8D02046FFF7D0F96F
:109740002046FFF761FAFAF7CBFD0146134840F8CF
:109750002740F06AC4E9050500B18461F46294F819
:109760003600B2791043B0710A4814F8342F3430FF
:109770006478835C23438354307A401C30720846FB
:10978000FAF7B2FD0020BDE8F09FFAF7ADFD4220E8
:10979000F9E70000F00000203F0000008C5102209B
:1097A000054C00BFFAF79CFDE169491CE161FAF73D
:1097B0009BFDFFF7C6FAF5E7F0000020044810B55E
:1097C0000068FFF7EBFABDE81040FF20FFF71EBA74
:1097D00010010020144C02E02820FFF707FC6078FD
:1097E0000028F9D0642160690025B0FBF1F06061C8
:1097F00018B92570FF20FFF7AFFBFAF771FDE1699B
:10980000C4E90615FAF770FDD4E90510B0FBF1F0D4
:10981000C0F164002070FFF7C2FA00F007F81420CE
:10982000FFF7E4FBE9E70000F00000207CB50C4DF9
:10983000002469462046FFF7B3FA58B955F82400CA
:1098400040B1012806D0D0E9021201EB8201416447
:1098500001998164641CE4B23F2CEAD97CBD00000C
:109860008C510220D30707D0920705D5002200298A
:1098700002D004C0491EFAE7704700002DE9F74FF7
:10988000CCB06CA000F0EEFB4FF480794C4648461B
:10989000FAF78AFD05462046FAF786FD82462046FD
:1098A000FAF782FD064621462846FBF72EF92146A7
:1098B0005046FBF72AF921463046FBF726F96CA102
:1098C0004D98FAF7EFFF834650F80B1F48918188B7
:1098D000ADF824119BF811008DF8260148A802F07C
:1098E00081FF01464B9064A000F0BCFB0D2002F00C
:1098F0004FFA4FF4FA7003F0C5F965A14D98FAF7E5
:10990000D1FF0546014664A000F0ACFB002D7DD0E0
:109910000024644F254664A14D98FAF7C3FF06461C
:10992000014662A000F09EFBB01D804662A1FAF7DE
:10993000B9FF0146824662A000F094FBAAEB08063C
:1099400049466846361DFBF702F9324641466846ED
:10995000FBF75CF8384602F013FFE84619E000BF59
:1099600008EB85013F1DC87820430302887818F86A
:109970002540184303024878184344EA0024012094
:1099800003F080F92146384605F0A0F900246D1C4B
:10999000EDB2B5EB960FE3D3012006F00301434689
:1099A0004A1C07E0351A5D5D2C43814200D0240239
:1099B000401CC0B28242F5D8012003F063F9214671
:1099C000381D05F083F941A14D98FAF76BFF00F1BE
:1099D0000A0500204A903F4E2022294640A8FBF766
:1099E00015F800240DF5807707EB84014AAA0120C1
:1099F000FCF7ECFB012003F045F906EB84004A99E3
:109A000005F064F9641CE4B2082C00E006E0EBD336
:109A100031A04B9900F026FB08F02AFD2846FAF702
:109A2000F2FC5046FAF7EFFC5846FAF7ECFC4FB060
:109A3000BDE8F08F322E4F5441506172616D537505
:109A40006243616C6C6261636B205075626C697318
:109A5000682041434B213D3D3D3D3D3D3D3D3D3D2C
:109A60003D3D3D3D3D3D3D3D3D3D3D3D0D0A000003
:109A700076657273696F6E00636F6D706172657683
:109A8000657273696F6E20693D25640D0A000000E0
:109A900074727565000000006361743A25730D0AE5
:109AA000000000002CE80F0875726C0075726C3AAB
:109AB00025730D0A000000002E62696E0000000090
:109AC00062696E3A25730D0A000000006D6435610D
:109AD00073756D0000EA0F087265616479206F7418
